:020000022000DC
:106000000000012019620200016202000362020026
:10601000056202000762020009620200000000003F
:106020000000000000000000000000000B62020001
:106030000D620200000000000F6202001162020007
:106040003D960200136202000DAA020013620200D4
:1060500013620200136202003DA3020013620200F9
:10606000A9B30200C1B3020013620200136202006E
:106070001362020013620200136202001362020044
:10608000136202006DE70200136202001362020055
:10609000ADE70200136202000D1903001362020053
:1060A0001362020013620200136202001362020014
:1060B00013620200136202000000000000000000F2
:1060C00013620200136202001362020013620200F4
:1060D000136202001362020013620200000000005B
:1060E00000000000000000000000000000000000B0
:1060F00000000000000000000000000000000000A0
:10610000000000000000000000000000000000008F
:10611000000000000000000000000000000000007F
:10612000000000000000000000000000000000006F
:10613000000000000000000000000000000000005F
:10614000000000000000000000000000000000004F
:10615000000000000000000000000000000000003F
:10616000000000000000000000000000000000002F
:10617000000000000000000000000000000000001F
:10618000000000000000000000000000000000000F
:1061900000000000000000000000000000000000FF
:1061A00000000000000000000000000000000000EF
:1061B00000000000000000000000000000000000DF
:1061C00000000000000000000000000000000000CF
:1061D00000000000000000000000000000000000BF
:1061E00000000000000000000000000000000000AF
:1061F000000000000000000000000000000000009F
:10620000FEE7FEE7FEE7FEE7FEE7FEE7FEE7FEE766
:10621000FEE7FEE7704700BF1048804710484FF088
:106220000701884385460F4880470F48016841F4BD
:1062300070010160BFF34F8FBFF36F8F00F01CB888
:106240000A480B490B4A884207D0521A05D00378F6
:1062500001300B700131013AF9D17047156202002B
:1062600000000120CD77020088ED00E0AC210300A2
:10627000982A0020982A00203A493B480A1A02D05E
:10628000072291438D46394939480A1A06D0072218
:10629000914381F30988022282F3148835483649F4
:1062A000364A00F041F836483649374A00F03CF8A3
:1062B00036483749374A00F037F837483749384ABF
:1062C00000F032F837483849384A00F02DF838489D
:1062D0003849394A00F028F838483949394A00F035
:1062E00023F839483949002200F036F8384839494E
:1062F000002200F031F838483849091A0BF068FEDE
:10630000374A904725482649884205D0026804301C
:1063100003B4904703BCF7E700208646EC46002014
:106320000021304A9047FEE7884214D0521A12D01A
:1063300003460B4313430324234206D1036804306E
:106340000B600431043AF9D17047037801300B70C7
:106350000131013AF9D17047884202D00270013010
:10636000FAE770470000012000E000200000012053
:106370000000012040410300982A00203C2B00200F
:10638000E8630200E8630200D820030040410300F4
:10639000982A0020982A0020AC210300AC21030099
:1063A000AC210300AC210300AC210300AC210300AD
:1063B000AC210300AC2103003D410300E441030094
:1063C0003C2B00203C2B00203C2B0020F4410020E3
:1063D000F4410020F4410020F4410020F461002049
:0863E00041620200E96C0200B9
:1063E80082B003468DF807309DF8073003F01F028E
:1063F80005499DF907305B09012000FA02F241F8CE
:10640800232000BF02B0704700E100E082B00346DD
:106418008DF807309DF8073003F01F0206499DF9F3
:1064280007305B09012000FA02F2203341F82320EB
:1064380000BF02B0704700BF00E100E0BFF34F8F1C
:1064480000BF074BDB6803F4E0620549054B1343C3
:10645800CB60BFF34F8F00BF00BF00BFFCE700BF9A
:1064680000ED00E00400FA0500B585B00190019B3D
:10647800002B0AD0074B43F001030393019B9B01B8
:106488000293039B0298984700E000BF05B05DF8AF
:1064980004FB00BF0023030000B583B00190019BFB
:1064A800002B0AD04FF47A70FFF7DEFF019B013B07
:1064B8000193019B002BF5D100E000BF03B05DF80C
:1064C80004FB000000B583B00190019B1B681F2BE3
:1064D80004D905494FF4E87000F09CF84FF0A04348
:1064E800184603B05DF804FBAC21030000B585B085
:1064F8000190084611461A4603468DF803300B46AC
:106508008DF8023013468DF8013001AB1846FFF7BD
:10651800D9FF03909DF803209DF802305B001A43D1
:106528009DF801309B001A439DF818301B0242EA7F
:1065380003019DF81C301B04019A1943039B02F5C3
:10654800E07243F8221000BF05B05DF804FB00B507
:1065580085B00390002301930023009300230122B8
:1065680001210398FFF7C2FF00BF05B05DF804FBE7
:1065780000B585B0019001AB1846FFF7A3FF039063
:10658800019B012202FA03F31946039800F018F858
:1065980000BF05B05DF804FB00B585B0019001AB04
:1065A8001846FFF78FFF0390019B012202FA03F3BD
:1065B8001946039800F00EF800BF05B05DF804FB1B
:1065C80082B001900091019B009AC3F8082500BF92
:1065D80002B0704782B001900091019B009AC3F805
:1065E8000C2500BF02B0704772DF704700BF184625
:1065F80073DF704700BF18467CDF704700BF18463E
:1066080082B00190024B01221A7000BF02B070479D
:10661800972B002000B583B003460091ADF80630F3
:10662800BDF80630009A1946034806F05FFB00BF24
:1066380003B05DF804FB00BFEFBEADDE00B5A9B046
:1066480004238DF89F305923ADF808303D4B04934F
:106658001723ADF80C3014AB3C22002118460BF080
:1066680007FD9DF89F308DF8533002AB1D9305ABA5
:106678003C22002118460BF0FBFC02238DF8143055
:10668800314B996805AB314A184601F0F4FF269062
:10669800269B2593259B002B04D02D4AB5212598B0
:1066A80006F024FB182200212A480BF0E1FC294BB4
:1066B80004221A70274B00225A60264B00221A75B2
:1066C800244BA0229A60234B00229A811E4B196802
:1066D80014AB214A184601F0CEFF2690269B24933E
:1066E800249B002B04D01A4ABF21249806F0FEFAF6
:1066F800184A15491948FFF777FF2690269B2393D8
:10670800239B002B04D0124AC221239806F0EEFAEC
:106718009DF80430012262F303038DF804309DF8DC
:106728000430012262F307138DF8043001AB0D2207
:106738000B491846FFF760FF269000BF29B05DF8A7
:1067480004FB00BFB82A0020A82A0020B42A002091
:10675800DC210300402B0020AC2A0020A42A0020C2
:106768006022030000B585B0114B1B780121184643
:10677800FFF73EFF0390039B0293029B002B04D07C
:106788000C4AD121029806F0B1FA022000F0E8FE86
:106798000390039B0193019B002B04D0054AD4214D
:1067A800019806F0A3FA00BF05B05DF804FB00BF2E
:1067B800A42A0020DC21030000B587B00AF0DEFF20
:1067C8000590059B002B01D0FFF738FE059B04932D
:1067D800049B002B04D01F4AEC21049806F086FA8B
:1067E8000023019301AB194601200BF0C1F8059075
:1067F800059B0393039B002B04D0164AF2210398B0
:1068080006F074FA01AB18460BF0D0F90590059B19
:106818000293029B002B04D00E4AF621029806F040
:1068280065FA9DF80030012262F303038DF8003009
:106838009DF80030012262F307138DF800306B4693
:106848000D2205491846FFF7D7FE059000BF07B08F
:106858005DF804FBDC2103006022030000B583B06F
:106868004FF40041002009F03DFD0190019B009389
:10687800009B002B05D0064A40F20B11009806F049
:1068880035FA09F0C5FC00BF03B05DF804FB00BF92
:10689800DC21030000B583B007F08AFF0190019B5B
:1068A8000093009B002B05D0044A40F21B1100986E
:1068B80006F01CFA00BF03B05DF804FBDC210300FE
:1068C80000B583B009F07AFA0190019B0093009B10
:1068D800002B05D0044A4FF49271009806F006FA8E
:1068E80000BF03B05DF804FBDC21030008B50AF023
:1068F80035F8034683F00103DBB2002B01D009F021
:1069080073FA00BF08BD000082B003468DF8073057
:10691800034A9DF80730137000BF02B0704700BFEC
:106928003E2B002000B583B0019007E0019B1B7847
:10693800184608F093F9019B01330193019B1B78DA
:10694800002BF3D100BF00BF03B05DF804FB0000CB
:1069580008B50C4B0122C3F8FC2F0A4B0322C3F8DD
:1069680000220120FFF73CFD4FF0804301221A600E
:1069780000BF4FF08043D3F80031002BF9D000BF9F
:1069880000BF08BD0010004008B5064B0022C3F840
:10699800FC2F0120FFF73AFD4FF0804300221A60D8
:1069A80000BF08BD0010004084B003468DF80730D2
:1069B8001A4A9DF80730C2F80835184B01225A6068
:1069C800164BD3F80031002BFAD0144B0022C3F831
:1069D8000021124B01225A61104BD3F81C31002BB5
:1069E800FAD00E4B0022C3F81C210C4BD3F84835C3
:1069F800DBB203F07F038DF80F30084B01221A61D8
:106A0800064BD3F81031002BFAD0044B0022C3F800
:106A180010219DF80F30184604B070470010004050
:106A280000B587B003468DF807307F238DF81730FF
:106A38000023049313E09DF807301846FFF7B4FFCE
:106A480003468DF80F309DF817209DF80F309342BC
:106A580028BF13468DF81730049B01330493049A1A
:106A6800044B1B689A42E6D99DF81730184607B0C0
:106A78005DF804FBA02A002000B583B00190019BBB
:106A88001B78022B08D1019B5B680B4A40F27911F5
:106A9800184606F02BF90BE0019B1B78012B07D158
:106AA800019B5B68044A40F27D11184606F01EF906
:106AB80000BF03B05DF804FBDC21030030B5A1B0D2
:106AC80032231D9300238DF87F3000238DF87E300C
:106AD8007F238DF87D30764B1B788DF87C3026E04F
:106AE8009DF87C301846FFF79BFF03468DF86A3007
:106AF8009DF87C3080336B449DF86A2003F8682C3D
:106B08009DF87E209DF86A30934238BF13468DF871
:106B18007E309DF87D209DF86A30934228BF134649
:106B28008DF87D309DF87C3001338DF87C30614BD9
:106B38001B789DF87C209A42D2D95F4B01AC1D4648
:106B48000FCD0FC42B6823609DF87E209DF87D3003
:106B5800D31A8DF87330564B1B788DF87B302CE0A8
:106B68009DF87B3080336B4413F8683C1A469DF8D7
:106B78007D30D31A9A009DF87330B2FBF3F38DF889
:106B88006B309DF86B309B0080336B4453F87C3C32
:106B98001846FFF7C7FE9DF87B3080336B4413F827
:106BA800683C312B04D89DF87F3001338DF87F3055
:106BB8009DF87B3001338DF87B303E4B1B789DF878
:106BC8007B209A42CCD99DF87F300A2B48D9FFF711
:106BD800DBFE0AF027FE0AF025FEFFF7EDFDFFF7C2
:106BE8002DFDFFF7BFFD1A20FFF7C2FC334B1B68D2
:106BF8001846FFF751FC324806F0C8FF1D9B9BB2B0
:106C08001A4601212E4806F05DFD1B901B9B002BA8
:106C180005D02C4A40F2A9111B9806F067F8274BBB
:106C28001B681846FFF738FC1120FFF7A1FC264A1D
:106C3800264BD31ADB081B0443F0030324491846E8
:106C480009F030FE4FF47A70FFF726FC0AF0EAFDEF
:106C58000AF0E8FDFFF77CFE194807F009F805E09F
:106C68001120FFF799FC1A20FFF796FC1948FFF747
:106C780059FE124B1B681846FFF70EFC164B1B7883
:106C8800002B11D00D4B1B68B3F5FA7F38BF4FF4BA
:106C9800FA731846FFF700FC0F4B00221A700F4BCF
:106CA8001B781846FFF730FE00BF21B030BD00BF8B
:106CB8003C2B0020982A0020982203009C2A0020C0
:106CC800F4220300DC2103005C21030024210300DB
:106CD80070220300802203003D2B00203E2B002061
:106CE80030B593B01A20FFF732FC2D4B0AAC1D4685
:106CF8000FCD0FC42B68236001238DF831300AAB08
:106D0800284A1946284806F00DFE1190119B109349
:106D1800109B002B05D0254A40F2D111109805F0A0
:106D2800E5FF234B04AC1D460FCD0FC495E80300C7
:106D380084E803001F4B00934FF4006301931E4B3C
:106D480002934FF400730393694604A807231B4A70
:106D580007F0D2FE1190119B0F930F9B002B05D0CB
:106D6800124A40F2E5110F9805F0C0FF07F054FFF2
:106D7800FFF774FDFFF78EFDFFF7A2FD104A114BD8
:106D8800D31ADB081B0443F003030F49184609F024
:106D980089FDFFF7DDFDFFF791FEFFF7A7FDFAE795
:106DA800C022030009660200F4220300DC2103006C
:106DB800D4220300BC2B0020BC330020816A0200CF
:106DC8005C21030024210300AC22030000B583B03A
:106DD8000190019B1B681F2B04D905494FF4E870EB
:106DE800FFF718FC4FF0A043184603B05DF804FB0A
:106DF8000823030000B585B0019001AB1846FFF7E2
:106E0800E5FF0390019B012202FA03F31946039858
:106E180000F069F800BF05B05DF804FB00B585B067
:106E2800019001AB1846FFF7D1FF0390019B0122A7
:106E380002FA03F31946039800F05FF800BF05B0A3
:106E48005DF804FB00B585B0019001AB1846FFF76B
:106E5800BDFF0390039BD3F804350293029BDA43EA
:106E6800019B012101FA03F31A40039BC3F808258B
:106E7800019B01229A40029B1A40039BC3F80C25F0
:106E880000BF05B05DF804FB00B583B00190009128
:106E9800009B002B03D10198FFF7C0FF02E0019887
:106EA800FFF7A8FF00BF03B05DF804FB00B585B08D
:106EB800019001AB1846FFF789FF0390039800F093
:106EC8000AF80246019B22FA03F303F0010318466D
:106ED80005B05DF804FB82B00190019BD3F804353E
:106EE800184602B0704782B001900091019B009A49
:106EF800C3F8082500BF02B0704782B00190009126
:106F0800019B009AC3F80C2500BF02B0704700002F
:106F180000B585B00190019B032B03D911493A2094
:106F2800FFF778FB104A019B13441B781846FFF7BC
:106F3800BDFF0346002B14BF012300238DF80F303B
:106F48009DF80F30002B14BF01230023DBB283F020
:106F58000103DBB203F00103DBB2184605B05DF8AC
:106F680004FB00BF38230300AC23030000B583B043
:106F78000190019B032B03D907494120FFF74AFBE6
:106F8800064A019B13441B7800211846FFF77CFF33
:106F980000BF03B05DF804FB38230300AC230300F3
:106FA80000B583B00190019B032B03D90749472003
:106FB800FFF730FB064A019B13441B780121184652
:106FC800FFF762FF00BF03B05DF804FB382303003E
:106FD800AC23030000B583B00023019305E00198BA
:106FE800FFF7DEFF019B01330193019B032BF6D9C9
:106FF80000BF00BF03B05DF804FB00B583B00023F9
:10700800019305E00198FFF7B1FF019B013301935C
:10701800019B032BF6D900BF00BF03B05DF804FB4A
:1070280000B583B00190019B032B03D907495F206A
:10703800FFF7F0FA064A019B13441B781846FFF73E
:1070480001FF00BF03B05DF804FB00BF3823030055
:10705800AC23030000B583B00C4B1B78002B0FD07A
:107068000023019308E0019B022B02D00198FFF74F
:1070780097FF019B01330193019B032BF3D901E097
:10708800FFF7A8FF00BF03B05DF804FBC43500207C
:107098002DE9D04F92B003468DF83F30002311936D
:1070A80000231093CC4B1B78002B04D0CA4A002332
:1070B8001370FFF7CFFF9DF83F30172B00F23F8288
:1070C80001A252F823F000BF317102004971020099
:1070D80049710200E571020081720200FD7202002E
:1070E80091730200B1730200C1730200ED730200D4
:1070F8000B740200297402004774020055740200E0
:10710800557402005574020055740200557402004B
:10711800E9740200F77402000B7502001F75020083
:107128003975020039750200FFF794FFAB4B18461A
:1071380007F0A4FB1190AA4A9DF83F301370FFE1B5
:107148000020FFF7E5FE0346002B0DD00020FFF7D7
:1071580027FF9DF83F30022B02D14FF4E16301E095
:107168004FF47A6310930BE00020FFF7FFFE9DF8C1
:107178003F30022B01D1C82301E04FF4C8731093AC
:10718800974A9DF83F301370944C109B002200934F
:1071980001924FF000024FF00003DDE90067394625
:1071A800CB03314643EA51433146CA0312F5FA711B
:1071B800029143F1000303934FF47A724FF00003F6
:1071C800DDE902010AF068FE02460B46134600227A
:1071D8001946204607F020FB1190B1E10020FFF787
:1071E80097FE0346002B0DD00020FFF7D9FE9DF82F
:1071F8003F30032B02D14FF4487301E04FF47A6318
:1072080010930BE00020FFF7B1FE9DF83F30032BF1
:1072180001D1C82301E04FF4C8731093704A9DF858
:107228003F3013706D4C109B0022049305924FF071
:1072380000024FF00003DDE904673946CB0331460D
:1072480043EA51433146CA0312F5FA71069143F1F4
:10725800000307934FF47A724FF00003DDE906014B
:107268000AF01AFE02460B4613460022194620462B
:1072780007F0D2FA119063E10020FFF749FE0346B8
:10728800002B06D00020FFF78BFE4FF47A63109393
:1072980005E00020FFF76AFE4FF4C8731093504AC8
:1072A8009DF83F3013704D4C109B00229A46934630
:1072B8004FF000024FF000034FEACB3343EA5A4342
:1072C8004FEACA3212F5FA71089143F100030993A3
:1072D8004FF47A724FF00003DDE908010AF0DCFD93
:1072E80002460B46134600221946204607F094FA38
:1072F800119025E10020FFF70BFE0346002B0CD070
:107308000020FFF74DFE9DF83F30052B01D1C82323
:1073180001E04FF47A6310930BE00020FFF726FE9C
:107328009DF83F30052B01D1C82301E04FF4C87305
:1073380010932B4A9DF83F301370284C109B002265
:10734800984691464FF000024FF000034FEAC933C8
:1073580043EA58434FEAC83212F5FA710A9143F1E9
:1073680000030B934FF47A724FF00003DDE90A0132
:107378000AF092FD02460B461346002219462046A3
:1073880007F04AFA1190DBE00020FFF749FE144AA3
:107398009DF83F301370114B002240F6CD4118463E
:1073A80007F03AFA1190CBE00020FFF7DFFD0C4A16
:1073B8009DF83F301370C3E0074B01221A7001207B
:1073C800FFF72EFE054B002240F6CD41184607F088
:1073D80023FA1190B4E000BFBD350020C835002065
:1073E800BC350020594B01221A700120FFF718FE06
:1073F800574B00224FF48041184607F00DFA1190C0
:107408009EE0524B01221A700120FFF709FE504BF3
:10741800002240F6CD41184607F0FEF911908FE0A2
:107428004A4B01221A700120FFF7FAFD484B00224F
:107438004FF48041184607F0EFF9119080E0FFF70C
:10744800DCFD444A9DF83F30137079E0424B184602
:1074580007F014FA11909DF83F30C3F1110310930F
:10746800109B002B35D0119B002B32D1109B012B88
:1074780028D9394C109B9BB21A46C82302FB03F348
:10748800DA171E4617464FF000024FF00003FB03C1
:1074980043EA5643F20312F5FA710C9143F10003E3
:1074A8000D934FF47A724FF00003DDE90C010AF0F6
:1074B800F3FC02460B46134600221946204607F005
:1074C800ABF911900220FFF751FD244B01221A70ED
:1074D80036E00220FFF764FD204B00221A702FE0EF
:1074E800FFF7B8FD1B4A9DF83F30137028E0FFF7FF
:1074F800B1FD0020FFF73AFD164A9DF83F301370A2
:107508001EE0FFF7A7FD0120FFF730FD114A9DF8A7
:107518003F30137014E0FFF79DFD0020FFF726FDB4
:107528000120FFF723FD0B4A9DF83F30137007E059
:10753800FFF763FD074A9DF83F30137000E000BF76
:10754800119B184612B0BDE8D08F00BFBD35002092
:10755800C8350020BC350020E8350020C43500209F
:1075680000B585B003468DF8073000230393084B18
:107578001B6803F00103002B05D09DF8073018465F
:10758800FFF786FD0390039B184605B05DF804FBE2
:10759800C035002084B001900B468DF803301346A7
:1075A8008DF8023000230393019B032B3CD89DF8F0
:1075B8000230012B0BD19DF80330012B04D1019B24
:1075C800DBB20E33DBB200E000238DF802309DF809
:1075D8000330022B0FD0022B23DC002B16D0012BFB
:1075E8001FD11449019A13465B0013440B449DF8BC
:1075F80002201A701AE00F49019A13465B001344DF
:107608000B4401339DF802201A700FE00949019AD2
:1076180013465B0013440B4402339DF802201A7092
:1076280004E00723039301E007230393039B184611
:1076380004B070470836002000B583B0012200214D
:107648000020FFF7A7FF0190019B002B04D0019BAE
:10765800072B01D0019B1CE0072202210120FFF724
:1076680099FF0190019B002B04D0019B072B01D0AF
:10767800019B0EE0042202210020FFF78BFF0190FE
:10768800019B002B04D0019B072B01D0019B00E03C
:107698000023184603B05DF804FB00B583B001224F
:1076A80002210020FFF776FF0190019B002B04D0F8
:1076B800019B072B01D0019B1CE00722022101201E
:1076C800FFF768FF0190019B002B04D0019B072B5B
:1076D80001D0019B0EE00A2200210020FFF75AFF8B
:1076E8000190019B002B04D0019B072B01D0019B2B
:1076F80000E00023184603B05DF804FB00B585B030
:1077080001900091019B1B88102B02D0112B18D0DF
:107718002FE01A4B1B68002B0DD1FFF78DFF03904C
:10772800039B002B07D0164B1B68002B03D0144B70
:107738001B6803989847114B1B6801330F4A136065
:1077480017E00E4B1B68013B0C4A13600B4B1B6880
:10775800002B0DD1FFF7A1FF0390039B002B07D04F
:10776800074B1B68002B03D0054B1B6803989847F1
:1077780000BF00BF05B05DF804FB00BF183600204D
:1077880014360020BFF34F8F00BF074BDB6803F4AC
:10779800E0620549054B1343CB60BFF34F8F00BF31
:1077A80000BF00BFFCE700BF00ED00E00400FA05E1
:1077B800024B034A1A6000BF704700BFD02A00205E
:1077C8000090D00308B500F069F90346002B06D0F5
:1077D800A04B1B681B0AA04A03F01F03136000F0AC
:1077E80089F90346002B02D09C4B9D4A1A6000F091
:1077F8009DF90346002B06D09A4B1B685B0B9A4AEF
:1078080003F00703136000F0BDF90346002B05D011
:10781800964BDB68954A23F08073D36000F0CEF96D
:107828000346002B0ED04FF080430022C3F80C21F2
:107838004FF080430022C3F810214FF0804300220C
:10784800C3F8382500F0E6F90346002B02D0884B30
:1078580003221A6000F0FAF90346002B0BD0854B7F
:1078680005221A60844B01221A60844B00221A6098
:10787800834B3F221A6000F005FA0346002B76D0AE
:107888004FF080537F4AD3F80434C2F820354FF0C4
:1078980080537C4AD3F80834C2F824354FF080531B
:1078A800784AD3F80C34C2F828354FF08053754A1B
:1078B800D3F81034C2F82C354FF08053714AD3F8FE
:1078C8001434C2F830354FF080536E4AD3F8183468
:1078D800C2F834354FF080536A4AD3F81C34C2F8E2
:1078E80040354FF08053674AD3F82034C2F8443506
:1078F8004FF08053634AD3F82434C2F848354FF028
:107908008053604AD3F82834C2F84C354FF080537E
:107918005C4AD3F82C34C2F850354FF08053594A9A
:10792800D3F83034C2F854354FF08053554AD3F861
:107938003434C2F860354FF08053524AD3F83834A3
:10794800C2F864354FF080534E4AD3F83C34C2F83D
:1079580068354FF080534B4AD3F84034C2F86C3541
:107968004FF08053474AD3F84434C2F8703500F0DA
:10797800A5F90346002B05D0434B1B68434A03F087
:107988004F03136000F0C6F90346002B0DD04FF0EB
:107998008043D3F8003403F00103002B05D04FF0E7
:1079A80080436FF00102C3F8002400F0DFF90346BA
:1079B800002B05D0364B1B68354A43F480631360AF
:1079C800344BD3F88830334A43F47003C2F8883014
:1079D800BFF34F8F00BFBFF36F8F00BF4FF010236F
:1079E800D3F80032002B05DB4FF01023D3F8043214
:1079F800002B2BDA284B0122C3F8042500BF264BA5
:107A0800D3F80034002BFAD04FF010231522C3F816
:107A1800002200BF204BD3F80034002BFAD04FF0DF
:107A280010231522C3F8042200BF1B4BD3F80034DF
:107A3800002BFAD0184B0022C3F8042500BF164BC0
:107A4800D3F80034002BFAD0FFF79CFEFFF7B0FE06
:107A580000BF08BD240300104035014074C0074032
:107A68000DF0ADBA440200103C050040F0ED00E016
:107A7800A0050040105600408856004018560040A7
:107A88001456004000C0004058020010E40E0040A8
:107A98003C17004000ED00E000E00140124B1B687D
:107AA800DBB2062B1DD1114B1B6803F00F03002B13
:107AB80017D10F4B1B6803F0F003302B01D10123C2
:107AC80010E00B4B1B6803F0F003402B01D101239E
:107AD80008E0074B1B6803F0F003502B01D101238A
:107AE80000E0002318467047E00F00F0E40F00F0B4
:107AF800E80F00F00A4B1B68DBB2062B0DD1094BCF
:107B08001B6803F00F03002B07D1074B1B6803F01A
:107B1800F003302B01D1012300E000231846704701
:107B2800E00F00F0E40F00F0E80F00F0124B1B68C4
:107B3800DBB2062B1DD1114B1B6803F00F03002B82
:107B480017D10F4B1B6803F0F003302B01D1012331
:107B580010E00B4B1B6803F0F003402B01D101230D
:107B680008E0074B1B6803F0F003502B01D10123F9
:107B780000E0002318467047E00F00F0E40F00F023
:107B8800E80F00F00A4B1B68DBB2062B0DD1094B3E
:107B98001B6803F00F03002B07D1074B1B6803F08A
:107BA800F003302B01D1012300E000231846704771
:107BB800E00F00F0E40F00F0E80F00F0124B1B6834
:107BC800DBB2062B1DD1114B1B6803F00F03002BF2
:107BD80017D10F4B1B6803F0F003302B01D10123A1
:107BE80010E00B4B1B6803F0F003402B01D101237D
:107BF80008E0074B1B6803F0F003502B01D1012369
:107C080000E0002318467047E00F00F0E40F00F092
:107C1800E80F00F00A4B1B68DBB2062B0DD1094BAD
:107C28001B6803F00F03002B07D1074B1B6803F0F9
:107C3800F003302B01D1012300E0002318467047E0
:107C4800E00F00F0E40F00F0E80F00F00A4B1B68AB
:107C5800DBB2062B0DD1094B1B6803F00F03002B79
:107C680007D1074B1B6803F0F003302B01D1012328
:107C780000E0002318467047E00F00F0E40F00F022
:107C8800E80F00F00A4B1B68DBB2062B0DD1094B3D
:107C98001B6803F00F03002B07D1074B1B6803F089
:107CA800F003502B01D1012300E000231846704750
:107CB800E00F00F0E40F00F0E80F00F0124B1B6833
:107CC800DBB2062B1DD1114B1B6803F00F03002BF1
:107CD80017D10F4B1B6803F0F003302B01D10123A0
:107CE80010E00B4B1B6803F0F003402B01D101237C
:107CF80008E0074B1B6803F0F003502B01D1012368
:107D080000E0002318467047E00F00F0E40F00F091
:107D1800E80F00F0124B1B68DBB2062B1DD1114B8C
:107D28001B6803F00F03002B17D10F4B1B6803F0E0
:107D3800F003302B01D1012310E00B4B1B6803F03B
:107D4800F003402B01D1012308E0074B1B6803F027
:107D5800F003502B01D1012300E00023184670479F
:107D6800E00F00F0E40F00F0E80F00F0064B1B688E
:107D7800062B05D1054B1B68062B01D1012300E01A
:107D880000231846704700BF30010010340100106E
:107D98006DDF704700BF184679DF704700BF18468F
:107DA8007DDF704700BF184664DF704700BF184684
:107DB80082B003460091ADF80630BDF80630DAB25D
:107DC800009B1A70BDF806301B0A9AB2009B01335B
:107DD800D2B21A700223184602B0704700B589B0B3
:107DE800039002911346ADF80630029B1B8803F1FD
:107DF8000902BDF806309A4201D90C2353E004ABBE
:107E08001846FFF7C5FF0790079B0693069B002BB4
:107E180001D0069B47E0029B1B881A46039B13442C
:107E280008221A70029B1B8801339AB2029B1A809F
:107E3800029B1B881A46039B13441B221A70029B41
:107E48001B8801339AB2029B1A80029B1B881A4630
:107E5800039B981804AB0133062219460AF0D6F89A
:107E6800029B1B8806339AB2029B1A809DF8103039
:107E780023F00103DBB2002B07D1029B1B881A46B3
:107E8800039B134400221A7006E0029B1B881A46C3
:107E9800039B134401221A70029B1B8801339AB278
:107EA800029B1A800023184609B05DF804FB00B550
:107EB80089B0039002910192ADF80230039B1B78C0
:107EC800012B05D1039B5B78002B01D1072391E09F
:107ED800019B1B889A1CBDF802309A420ED8039B5E
:107EE8001B78012B0CD1019B1B881A46039B5B78DE
:107EF80013449A1CBDF802309A4201D90C2379E048
:107F0800019B1B88BDF80220D31A9BB2023BADF837
:107F18001C30BDF81C30ADF81230019B1B880233B1
:107F2800029A13440DF1120211461846FFF738FF62
:107F38000690069B0593059B002B01D0059B59E0F5
:107F4800039B1B78022B06D0039B5B781A46BDF86F
:107F580012309A4209D3BDF81230BDF81C209A425B
:107F680003D309238DF81F3016E008238DF81F303E
:107F7800039B1B78012B0BD1039B5B781A46BDF83A
:107F88001C30934204D3039B5B78ADF8123003E0B6
:107F9800BDF81C30ADF81230BDF81230FE2B01D9F7
:107FA8000C2327E0BDF81230DAB2019B1B88194672
:107FB800029B0B440132D2B21A70019B1B88013319
:107FC8009AB2019B1A80019B1B881A46029B134494
:107FD8009DF81F201A70019B1B8801339AB2019BE0
:107FE8001A80019B1A88BDF8123013449AB2019B7B
:107FF8001A800023184609B05DF804FB00B589B063
:10800800039002911346ADF80630029B1B881A1D97
:10801800BDF806309A4201D90C233AE00DF1160357
:108028001846FFF7B9FE0790079B0693069B002B9F
:1080380001D0069B2DE0029B1B881A46039B134424
:1080480003221A70029B1B8801339AB2029B1A8082
:10805800029B1B881A46039B134419221A70029B21
:108068001B8801339AB2029B1A80BDF81620029B26
:108078001B881946039B0B4419461046FFF798FEC8
:1080880003461A46029B1B8813449AB2029B1A8025
:108098000023184609B05DF804FB84B002910192F0
:1080A8001A4603468DF80F301346ADF80C30019B85
:1080B8001B88DA1CBDF80C309A4201D90C2328E041
:1080C800019B1B881A46029B134402221A70019BCB
:1080D8001B8801339AB2019B1A80019B1B881A46A0
:1080E800029B134401221A70019B1B8801339AB228
:1080F800019B1A80019B1B881A46029B13449DF81A
:108108000F201A70019B1B8801339AB2019B1A80B9
:108118000023184604B0704784B0029101921A46B1
:1081280003468DF80F301346ADF80C30019B1B88C1
:10813800DA1CBDF80C309A4201D90C2328E0019BC7
:108148001B881A46029B134402221A70019B1B8843
:1081580001339AB2019B1A80019B1B881A46029B25
:1081680013440A221A70019B1B8801339AB2019B9F
:108178001A80019B1B881A46029B13449DF80F2006
:108188001A70019B1B8801339AB2019B1A80002345
:10819800184604B0704700B58FB0039001930B46A2
:1081A8008DF80B3013468DF80A3000238DF83330E4
:1081B800109B1B88ADF8303000230D9370E0039BB3
:1081C8005A680D9B9B001A4405AB106818600DF1A6
:1081D8001B0105AB00221846FFF7E6FD0A900A9B33
:1081E8000993099B002B01D0099B7BE09DF81B306C
:1081F8009DF80A209A4250D19DF83330002B01D0C7
:10820800002300E002238DF82330109B1B881A46B8
:108218009DF81B301A449DF823301A44BDF84430A9
:108228009A4201DD0C235DE09DF8333083F00103B1
:10823800DBB2002B16D0109B1B8801339AB2109B1F
:108248001A80109B1B881A46019B13449DF80B202B
:108258001A70109B1B8801339AB2109B1A80012355
:108268008DF83330109B1B881A46019B1A440DF178
:108278001B0105AB1846FFF797FD0A900A9B079369
:10828800079B002B01D0079B2CE0109B1B889DF8B7
:108298001B2013449AB2109B1A800D9B01330D9337
:1082A800039B1B881A460D9B934288DB9DF833304D
:1082B800002B16D0109B1A88BDF83030D31A9BB209
:1082C800013BADF82E30BDF82E30FF2B01D90C2321
:1082D80008E0BDF83030019A1344BDF82E20D2B220
:1082E8001A70002318460FB05DF804FB00B58BB078
:1082F800059003930B468DF8133013468DF8123012
:108308009DF81310BDF8343001930C9B0093039B28
:1083180002220598FFF73FFF0990099B0893089BE5
:10832800002B01D0089B14E09DF81210BDF83430E2
:1083380001930C9B0093039B10220598FFF72BFFDA
:108348000990099B0793079B002B01D0079B00E02E
:10835800002318460BB05DF804FB82B00190019B26
:108368001B88052B0AD9019B1B88B3F5486F07D9D1
:10837800019B1B884FF6FF72934201D0072325E02B
:10838800019B5B88052B0AD9019B5B88B3F5486F75
:1083980007D9019B5B884FF6FF72934201D00723F0
:1083A80014E0019B1B884FF6FF7293420DD0019B8E
:1083B8005B884FF6FF72934207D0019B1A88019B96
:1083C8005B889A4201D9072300E00023184602B0CF
:1083D800704700B587B0039002910192ADF8023062
:1083E800019B1B889A1DBDF802309A4201D90C23C3
:1083F8004BE00398FFF7B1FF0590059B0493049B9E
:10840800002B01D0049B40E0019B1B881A46029B6D
:10841800134405221A70019B1B8801339AB2019BF1
:108428001A80019B1B881A46029B134412221A7059
:10843800019B1B8801339AB2019B1A80039B1A88FF
:10844800019B1B881946029B0B4419461046FFF7EF
:10845800AFFC03461A46019B1B8813449AB2019B42
:108468001A80039B5A88019B1B881946029B0B4460
:1084780019461046FFF79CFC03461A46019B1B88C9
:1084880013449AB2019B1A800023184607B05DF87E
:1084980004FB00B587B0039002910192ADF8023059
:1084A800039B9B8802330593019B1B881A46059BF7
:1084B80013449A1CBDF802309A4201D90C2353E0A8
:1084C800059BFE2B01D90C234EE0059BDAB2019BDC
:1084D8001B881946029B0B440132D2B21A70019BC9
:1084E8001B8801339AB2019B1A80019B1B881A468C
:1084F800029B1344FF221A70019B1B8801339AB216
:10850800019B1A80039B1A88019B1B881946029BB2
:108518000B4419461046FFF74BFC03461A46019BCD
:108528001B8813449AB2019B1A80039B9B88002BDB
:1085380019D0039B9B68002B01D1072314E0019BF2
:108548001B881A46029B9818039B9968039B9B8873
:108558001A4609F05BFD019B1A88039B9B8813440C
:108568009AB2019B1A800023184607B05DF804FBF5
:1085780000B589B0039002910192ADF80230039BD7
:108588009B6A002B01D1072371E000238DF81F306F
:1085980065E0039B996A9DF81F2013465B0013440E
:1085A8009B000B440693069B9B8802330593059B0F
:1085B800FE2B01D90C235AE0059BDAB2019B1B88DC
:1085C8001946029B0B440132D2B21A70019B1B88D8
:1085D80001339AB2019B1A80019B1B881A46029BA1
:1085E800134416221A70019B1B8801339AB2019B0F
:1085F8001A80069B1A88019B1B881946029B0B440C
:1086080019461046FFF7D4FB03461A46019B1B8800
:1086180013449AB2019B1A80069B9B88002B19D0A1
:10862800069B9B68002B01D1072320E0019B1B8838
:108638001A46029B9818069B9968069B9B881A46BF
:1086480009F0E4FC019B1A88069B9B8813449AB2A4
:10865800019B1A809DF81F3001338DF81F30039B52
:1086680093F82C309DF81F209A4292D30023184685
:1086780009B05DF804FB00B595B00590049103922C
:1086880000231393039B1B88ADF84A30039B0022F9
:108698001A80059B93F82D30002B0ED0BDF84A3078
:1086A8001A4603990498FFF799FB1390139B1193AB
:1086B800119B002B01D0119BD8E0059B9B78002BC8
:1086C8000ED0BDF84A301A4603990498FFF796FC75
:1086D8001390139B1093109B002B01D0109BC5E0A7
:1086E800059BDB78002B10D0059BDB7858B2BDF8D2
:1086F8004A30039A0499FFF7D0FC1390139B0F9309
:108708000F9B002B01D00F9BB0E0059B5B68002BF3
:1087180011D0059B5B6893F90000BDF84A30039AB5
:108728000499FFF7F9FC1390139B0E930E9B002BF3
:1087380001D00E9B9AE0059B1B89002B14D0059B4A
:1087480003F10800BDF84A300193039B0093049B92
:1087580006220221FFF7CAFD1390139B0D930D9B70
:10876800002B01D00D9B81E0059B1B8A002B14D0A8
:10877800059B03F11000BDF84A300193039B009359
:10878800049B07220321FFF7B1FD1390139B0C9361
:108798000C9B002B01D00C9B68E0059B1B8B002BCE
:1087A80014D0059B03F11800BDF84A300193039BD0
:1087B8000093049B15221421FFF798FD1390139B37
:1087C8000B930B9B002B01D00B9B4FE0059B1B6A67
:1087D800002B0FD0059B186ABDF84A30039A0499FC
:1087E800FFF7F7FD1390139B0A930A9B002B01D008
:1087F8000A9B3BE0059B5B6A002B0FD0059B586AE0
:10880800BDF84A30039A0499FFF743FE1390139B6F
:108818000993099B002B01D0099B27E0059B93F83E
:108828002C30002B0ED0BDF84A30039A04990598D5
:10883800FFF79EFE1390139B0893089B002B01D013
:10884800089B13E0059B1B78002B0ED0BDF84A301F
:10885800039A04990598FFF72AFB1390139B079333
:10886800079B002B01D0079B00E0139B184615B00F
:108878005DF804FB84B00346ADF80630002303938B
:1088880016E00F49039A13469B0013449B000B44C0
:108898001B88BDF806209A4207D1039A13469B000D
:1088A80013449B00064A134406E0039B01330393D9
:1088B800039B002BE5D00023184604B0704700BF87
:1088C8001C36002082B001900B46ADF80230019BA7
:1088D800BDF802201A80019B00221A72019B0549EB
:1088E80003F10A020B4603CB1060516000BF02B0CF
:1088F800704700BF4C36002082B00190019B4FF6B4
:10890800FF721A8000BF02B0704788B003900291CE
:1089180011461A460B46ADF806301346ADF804303A
:10892800039B9B881A46BDF8063013440793039BA4
:108938009B881946039B9B88BDF80620934228BF55
:1089480013469BB2CB1A0693039BDB881A46BDF8E5
:10895800043013440593039BDB881946039BDB888B
:10896800BDF80420934228BF13469BB2CB1A049348
:10897800029B5A88039B1B889A4205D3029B5A88FC
:10898800039B5B889A4201D900231CE0029B9B88C9
:108998001A46069B934205D8029B9B881A46079B5A
:1089A800934201D200230EE0029BDB881A46049B07
:1089B800934205D8029BDB881A46059B934201D255
:1089C800002300E00123184608B0704700B583B0C3
:1089D8000190064B9B69002B03D0044B9B690198BF
:1089E800984700BF03B05DF804FB00BF3036002095
:1089F80000B587B003460091ADF80630009B5B7A5E
:108A0800002B1AD1009B1B7A002B03D1164B5B68F5
:108A1800059302E0144B9B680593009B5B68BDF8C7
:108A280006200599184605F0F7FE0490049B002BD4
:108A380016D00498FFF7CAFF12E0009B00221A72B2
:108A4800094B5B69002B0BD001238DF80C30BDF866
:108A58000630ADF80E30044B5B6903AA1046984700
:108A680000BF07B05DF804FB3036002000B585B0C4
:108A78000190019BDB7B8DF80F30019B9B88ADF843
:108A88000C309DF80F30012B2CD14FF6FF70FFF7FB
:108A9800F1FE0290029B002B03D10420FFF796FF02
:108AA80021E0BDF80C3019460298FFF70BFF029B36
:108AB80003F10A00019B03F110014FF6FF7340F226
:108AC800F312FFF722FF03461A46029B5A72074B1E
:108AD800DB89002B07D1BDF80C3002991846FFF747
:108AE80087FF00E000BF05B05DF804FB30360020CA
:108AF80000B587B00190019B9B88ADF81630BDF892
:108B080016301846FFF7B6FE0490049B002B0ED0D3
:108B1800049B5B68184605F0B1FE0390039B002B8D
:108B280002D00398FFF752FF0498FFF7E5FE00BF55
:108B380007B05DF804FB000000B587B00190019B09
:108B480006330593059B1A88194BDB899A422BD16A
:108B5800059B5B89022B27D1019B9B88ADF81230BE
:108B6800BDF812301846FFF785FE0390039B002BD3
:108B78001AD0059B0C33184600F0BCF90346002BAD
:108B880006D0BDF8123003991846FFF731FF0BE005
:108B9800039B5B68184605F071FE0290029B002B50
:108BA80002D00298FFF712FF00BF07B05DF804FB80
:108BB8003036002000B585B00190019B9B88ADF848
:108BC8000E30BDF80E301846FFF754FE0290029B97
:108BD800002B15D0029B03F10A00019B03F1080149
:108BE8004FF6FF7340F2F312FFF78FFE03461A4663
:108BF800029B5A72BDF80E3002991846FFF7F8FE2C
:108C080000BF05B05DF804FB00B583B0019000918A
:108C1800019B1B88502B12D0502B18DC122B12D022
:108C2800122B14DC102B02D0112B04D00FE001986A
:108C3800FFF71CFF0CE00198FFF75AFF08E00198C6
:108C4800FFF77AFF04E00198FFF7B4FF00E000BFE8
:108C580000BF03B05DF804FB30B58FB00190009100
:108C680000230293009B002B1AD000230D9314E0DD
:108C78006B460D99184606F013F90346002B09D0E8
:108C8800029B5A1C02920D9A92B25B0038336B44D5
:108C980023F82C2C0D9B01330D930D9B132BE7D937
:108CA800019B1D4602AC0FCC0FC50FCC0FC594E835
:108CB800070085E8070001980FB030BD00B583B004
:108CC8000346ADF80630BDF80630132B01D9002352
:108CD8000CE0BDF806301946064806F0B0F8BDF8B5
:108CE80006301946044806F0AAF80123184603B0CE
:108CF8005DF804FB5C3600205836002000B585B0CE
:108D08000346ADF80630002303930DE0039B9B0058
:108D1800094A13440433BDF806201146184606F0E4
:108D2800A6F8039B01330393039B1C2BEED900BFCA
:108D380000BF05B05DF804FB5436002000B583B0D1
:108D48000346ADF80630BDF806301946034806F06C
:108D58008EF800BF03B05DF804FB00BF5C3600204E
:108D680030B59BB0184B9B68DB431893164B5A6879
:108D780018AB1146184606F0F2F8189A6B461146D9
:108D88001846FFF769FF0DAC6D460FCD0FC40FCD28
:108D98000FC495E8070084E80700002319930BE047
:108DA800199B5B0068336B4433F8303C1846FFF777
:108DB800A5FF199B013319930D9B199A9A42EFD37A
:108DC80000BF00BF1BB030BD5436002000B585B0D1
:108DD80001900091019B9B88ADF80E30019B1B8888
:108DE8001A2B2AD01A2B68DC102B02D0112B1ED07C
:108DF80063E0FFF7B5FFBDF80E301846FFF75EFFDA
:108E0800034683F00103DBB2002B05D02D4AE32192
:108E1800042003F06BFF4FE0019BDB7B012B4BD061
:108E2800BDF80E301946284806F009F844E0BDF8A8
:108E38000E301846FFF782FF3FE0019B1B7AC3F311
:108E48000313DBB2012B8CBF012300238DF80D30F7
:108E5800019B1B7AC3F30313DBB2022B8CBF0123E4
:108E680000238DF80C309DF80D30002B17D0BDF87D
:108E78000E301946154805F0E2FF9DF80C30002B1E
:108E880006D0BDF80E301946114805F0D8FF14E099
:108E9800BDF80E3019460E4805F0E9FF0DE0BDF8A3
:108EA8000E301946094805F0E2FFBDF80E301946A4
:108EB800074805F0DCFF00E000BF00BF05B05DF823
:108EC80004FB00BFB0230300603600206436002096
:108ED8006836002082B00190019B1B781AB2019B72
:108EE80001331B781B021BB213431BB29BB21846FB
:108EF80002B0704700B585B001900198FFF7EAFF0E
:108F08000346ADF80E30BDF80E3003F00103002B18
:108F180014BF01230023DBB2184605B05DF804FB3B
:108F280082B003468DF807309DF8073003F01F0222
:108F380006499DF907305B09012000FA02F2203347
:108F480041F8232000BF02B0704700BF00E100E0F5
:108F580008B508F0A9FC034683F00103DBB2002B37
:108F680003D105497920FDF755FB00F049FB034B78
:108F780000229A7000BF08BDA8250300CC36002047
:108F880000B583B000230193144B1B78002B02D04B
:108F9800852301931CE0114B00229A600F4B00229D
:108FA8005A600E4B00221A610C4B0022DA600C4802
:108FB80000F0ECFA019008F077FC034683F0010317
:108FC800DBB2002B01D000F007FB044B01221A7022
:108FD800019B184603B05DF804FB00BFCC360020A7
:108FE800C190020084B00190019B1B680393039B0E
:108FF800002B03D0039B1A68019B1A60039B184639
:1090080004B0704700B583B0164B1B78002B04D111
:1090180015494FF48570FDF7FDFA124BDB68002BFC
:1090280004D1114940F20B10FDF7F4FA00238DF832
:1090380007300DF10703184605F0B4FE094BDB684D
:10904800013B084AD360074BDB68002B01D1FFF7CF
:109058007FFF9DF80730184605F0BAFE00BF03B041
:109068005DF804FBCC360020A825030000B585B0C8
:1090780003468DF807309DF80730002B02D10C4BC2
:10908800039301E00B4B03930398FFF7ABFF0290A8
:10909800029B002B06D0029B5B689DF807201046B8
:1090A8009847F1E700BF00BF05B05DF804FB00BFBB
:1090B800D4360020DC36002000B583B003468DF896
:1090C80007309DF80730002B05D10A4B01225A7052
:1090D8000020FFF7CBFF9DF80730012B05D1054B8A
:1090E80001229A700120FFF7C1FF00BF03B05DF8AD
:1090F80004FB00BFCC36002000B583B0019000917E
:10910800019B002B05D1054B01225A700020FFF767
:10911800ADFF00BF03B05DF804FB00BFCC360020F4
:1091280000B585B0034600918DF807309DF80730EB
:10913800032B29D0032B35DC002B02D0012B04D0C4
:1091480030E00020FFF7ECFE2DE000238DF80F3013
:109158000DF10F03184605F025FE154B1B7883F01B
:109168000103DBB2002B01D0FFF70AFF104BDB68CD
:1091780001330F4AD3600E4B01229A709DF80F30CD
:10918800184605F025FE0EE0094B1B78002B04D18C
:10919800084940F24520FDF73DFA00F01DFAFFF7B7
:1091A80031FF00E000BF00BF05B05DF804FB00BF61
:1091B800CC360020A8250300054B1B78002B04D1D2
:1091C800034B01221A70002300E0852318467047DC
:1091D800E036002000B589B001900091009B07930C
:1091E800019B1B788DF80C30019B5B680493019BF5
:1091F8001B7A8DF81430019BDB680693074A079B9E
:1092080052F823300649079A51F8221003AA10464B
:10921800984700BF09B05DF804FB00BFE4360020A2
:10922800E836002000B589B001900091009B0793B3
:10923800019B1B788DF80C30019B5B680493019BA4
:109248009B68DBB28DF81430019BDB680693074AF4
:10925800079B52F823300649079A51F8221003AAAF
:109268001046984700BF09B05DF804FBE4360020BB
:10927800E836002030B58FB0039002910192039B2D
:109288001B780C9326490C9B019A41F82320029BDA
:109298001A6924490C9B41F82320029B5B7F1946DD
:1092A800214A0C9B13440A461A70029B04AC1D46C3
:1092B8000FCD0FC495E80F0084E80F000C9B0893AE
:1092C80000230D93039B1B781A46174B9B5C002BBE
:1092D8000DD0039B181D019B002B01D0134A00E001
:1092E800002204AB194603F083F90D9014E0039BA8
:1092F8001B781A460C4B9B5C002B0DD1039B03F18A
:109308000C00019B002B01D0094A00E0002204ABAD
:10931800194602F0DFFA0D900D9B18460FB030BDCC
:10932800E4360020E8360020EC360020DD9102000B
:109338002D92020082B003468DF807309DF8073061
:1093480003F01F0205499DF907305B09012000FA67
:1093580002F241F8232000BF02B0704700E100E0AC
:1093680082B003468DF807309DF8073003F01F02DE
:1093780006499DF907305B09012000FA02F26033C3
:1093880041F8232000BF02B0704700BF00E100E0B1
:1093980082B0034600918DF807309DF90730002B05
:1093A8000CDA009BDAB20C499DF8073003F00F0382
:1093B800043B5201D2B20B441A7609E0009BDAB2A0
:1093C80006499DF907305201D2B20B4483F80023B5
:1093D80000BF02B0704700BF00ED00E000E100E010
:1093E80000B583B003460A468DF8073013468DF85A
:1093F80006309DF80630012B03D99DF80630032B63
:109408000BD99DF80630042B03D99DF80630072B9D
:1094180003D908496B20FDF7FDF89DF806209DF952
:10942800073011461846FFF7B3FF00BF03B05DF8D9
:1094380004FB00BF4826030000B583B003468DF83F
:1094480007309DF907301846FFF78AFF9DF9073066
:109458001846FFF76FFF00BF03B05DF804FB00007C
:1094680082B003468DF807300F4A9DF90730002B6C
:1094780000DA1F335B115BB252F823209DF90730E5
:10948800594203F01F0301F01F0158BF4B425BB262
:1094980022FA03F303F00103002B14BF0123002376
:1094A800DBB2184602B0704700E100E082B00190DC
:1094B8004FF08042019BC2F8083300BF02B07047EA
:1094C80082B003468DF807309DF8073003F18043DA
:1094D80001221A6000BF02B0704784B00346ADF89D
:1094E8000630BDF8063003F1804300221A60BDF84B
:1094F800063003F180431B680393039B00BF04B04D
:10950800704782B00346ADF80630BDF8063003F167
:1095180080431B68002B14BF01230023DBB21846CD
:1095280002B0704782B001904FF08042019BC2F8B0
:10953800183500BF02B070474FF08043D3F8183495
:109548001B0C03F00103002B14BF01230023DBB223
:109558001846704700B583B006238DF80730002001
:10956800FFF77EFF034683F00103DBB2002B08D030
:109578009DF8073019460020FFF732FF0020FFF75B
:109588005BFF00BF03B05DF804FB000000B585B0C9
:109598000190019B002B03D10D49A220FDF73AF859
:1095A800002303930B4B1B79002B02D085230393D5
:1095B80008E0084A019B1360064B01221A71054B0B
:1095C80000225A71039B184605B05DF804FB00BFE2
:1095D80080260300F036002008B5074B1B79002BC6
:1095E80003D10649BB20FDF715F8FFF7B3FF0120AB
:1095F800FFF798FF00BF08BDF03600208026030063
:1096080008B50A4B1B79002B03D10949F220FDF755
:1096180001F80C20FFF754FF00BFFFF78DFF03464A
:10962800002BFAD100BF00BF08BD00BFF0360020F4
:109638008026030008B54FF48070FFF762FF0346E9
:10964800002B14D04FF48070FFF747FF0120FFF77D
:109658002DFF114B5B7983F00103DBB2002B06D0A1
:109668000D4B01225A710C4B1B68002098474FF490
:109678008270FFF746FF0346002B0AD04FF4827032
:10968800FFF72BFF0220FFF711FF034B1B68012098
:10969800984700BF08BD00BFF036002082B00346DF
:1096A8008DF807309DF8073003F01F0205499DF932
:1096B80007305B09012000FA02F241F8232000BFBD
:1096C80002B0704700E100E082B003468DF8073031
:1096D8009DF8073003F01F0206499DF907305B0922
:1096E800012000FA02F2603341F8232000BF02B0E3
:1096F800704700BF00E100E082B0034600918DF89A
:1097080007309DF90730002B0CDA009BDAB20C49C0
:109718009DF8073003F00F03043B5201D2B20B440B
:109728001A7609E0009BDAB206499DF90730520122
:10973800D2B20B4483F8002300BF02B0704700BFC9
:1097480000ED00E000E100E000B583B003460A4602
:109758008DF8073013468DF806309DF80630012B3A
:1097680003D99DF80630032B0BD99DF80630042B3E
:1097780003D99DF80630072B03D908496B20FCF75D
:1097880049FF9DF806209DF9073011461846FFF756
:10979800B3FF00BF03B05DF804FB00BF1C27030044
:1097A80000B583B003468DF807309DF90730184699
:1097B800FFF78AFF9DF907301846FFF76FFF00BFD4
:1097C80003B05DF804FB82B003468DF807309DF8BE
:1097D800073003F1804303F5C043184602B07047D1
:1097E80000B583B00346ADF80630BDF8063018461C
:1097F80000F026F803461B68012B0CBF0123002349
:10980800DBB2184603B05DF804FB00B585B003462B
:10981800ADF80630BDF80630184600F011F80346DA
:109828001A4600231360BDF80630184600F008F801
:1098380003461B680393039B00BF05B05DF804FB58
:1098480082B00346ADF80630BDF8063003F1804318
:1098580003F5C043184602B07047000082B001907B
:10986800034A019BC2F8043300BF02B0704700BF2F
:109878000060004082B00190034BD3F80423019BA1
:109888001340184602B070470060004082B0019053
:10989800054A019B03F5A27352F823301B0A03F013
:1098A8001F03184602B070470060004082B0019064
:1098B800064A019B03F5A27352F823301B0C03F0F0
:1098C8000303DBB2184602B0704700BF00600040D7
:1098D80084B00190094A019B03F5A27352F8233022
:1098E80043F0030303930549019B03F5A273039A0D
:1098F80041F8232000BF04B0704700BF006000405B
:1099080082B00190084A019B03F5A27352F82330F4
:10991800054923F00302019B03F5A27341F82320B4
:1099280000BF02B0704700BF0060004084B00390E1
:10993800029111461A460B468DF8073013468DF8EA
:109948000630184A039B03F5A27352F823301549D1
:1099580023F4981323F4F853039A02F5A27241F8FA
:109968002230104A039B03F5A27352F82320029B6E
:109978001B0203F4F8519DF807301B0403F440332D
:1099880019439DF806301B0503F480130B43054962
:109998001A43039B03F5A27341F8232000BF04B0C8
:1099A800704700BF0060004082B001900B468DF800
:1099B80003300B4A019B03F5A27352F8233023F4BA
:1099C80080129DF803301B0503F4801304491A43E1
:1099D800019B03F5A27341F8232000BF02B0704732
:1099E8000060004082B00190044A019B03F5A27315
:1099F800002142F8231000BF02B070470060004009
:109A080000B583B00190019B1B681F2B04D9054941
:109A18004FF4E870FCF7FEFD4FF0A043184603B082
:109A28005DF804FB4C27030000B585B0019008469B
:109A380011461A4603468DF803300B468DF802305E
:109A480013468DF8013001AB1846FFF7D9FF039094
:109A58009DF803209DF802305B001A439DF8013001
:109A68009B001A439DF818301B0242EA03019DF837
:109A78001C301B04019A1943039B02F5E07243F85A
:109A8800221000BF05B05DF804FB00B585B0039057
:109A9800002301930023009300230122012103984E
:109AA800FFF7C2FF00BF05B05DF804FB00B585B045
:109AB8000390002301930023009300230122002137
:109AC8000398FFF7B1FF00BF05B05DF804FB00B5D0
:109AD80085B001900B468DF8033001AB1846FFF7AF
:109AE8008FFF0390019A039B02F5E07253F822302E
:109AF800019A23F44031039B02F5E07243F82210E7
:109B0800019A039B02F5E07253F822109DF8033086
:109B18001B04019A1943039B02F5E07243F82210D3
:109B280000BF05B05DF804FB00B585B0019001AB3E
:109B38001846FFF765FF0390019B012202FA03F321
:109B48001946039800F036F800BF05B05DF804FB2D
:109B580000B585B0019001AB1846FFF751FF03909F
:109B6800019B012202FA03F31946039800F02CF82E
:109B780000BF05B05DF804FB00B585B0019001ABEE
:109B88001846FFF73DFF0390019A039B02F5E07228
:109B980053F822301B0C03F00303DBB2184605B060
:109BA8005DF804FB82B00190019BD3F8103518468C
:109BB80002B0704782B001900091019B009AC3F8EF
:109BC800082500BF02B0704782B001900091019B48
:109BD800009AC3F80C2500BF02B0704700B587B0E3
:109BE8000390029101924FF0A0430493039A029BC1
:109BF8001344012B04D9124940F2F120FCF70AFD65
:109C0800039B059311E0059B9B0018336B4453F8A5
:109C1800083C1846FFF7C6FF0246019B1A60019BE5
:109C280004330193059B01330593039A029B134464
:109C3800059A9A42E7D300BF00BF07B05DF804FB5E
:109C48004C27030084B001900091009B0393019B73
:109C5800DB080293019B03F0070301930122019B98
:109C680002FA03F30399029A0A4412781340184639
:109C780004B0704784B001900091009B0393019B4E
:109C8800DB080293019B03F007030193039A029BED
:109C980013441B785AB20121019B01FA03F35BB20A
:109CA800134359B2039A029B1344CAB21A7000BFF5
:109CB80004B0704784B001900091009B0393019B0E
:109CC800DB080293019B03F007030193039A029BAD
:109CD80013441B785AB20121019B01FA03F35BB2CA
:109CE800DB435BB2134059B2039A029B1344CAB2D6
:109CF8001A7000BF04B0704782B00190074A019BF8
:109D08001344303393F90030B3F1FF3F14BF0123FC
:109D18000023DBB2184602B0704700BFF8360020B7
:109D280082B001900C4A019B1344303393F9003000
:109D3800002B09DB084A019B1344303393F90030A8
:109D4800072B01DC012300E0002303F00103DBB251
:109D5800184602B0704700BFF836002084B0039060
:109D6800029101928DF80330029B59B20E4A039B6F
:109D7800134430330A461A700B49029B019A41F882
:109D880023209DF8033083F00103DBB2002B08D0B9
:109D9800029B083B039A51B2034A13440A4683F8CC
:109DA800502000BF04B07047F836002082B0019000
:109DB800044A019B13443033FE221A7000BF02B0DC
:109DC800704700BFF836002082B00190044A019B1A
:109DD80013443033FF221A7000BF02B0704700BF2F
:109DE800F836002000B583B0019004490198FFF7C8
:109DF80041FF00BF03B05DF804FB00BF4C370020F3
:109E080000B583B0019004490198FFF753FF00BFE4
:109E180003B05DF804FB00BF4C37002000B583B0E9
:109E2800019007490198FFF70DFF0346002B14BF67
:109E380001230023DBB2184603B05DF804FB00BF22
:109E48004C37002082B00190044A019B1344303300
:109E580093F90030184602B0704700BFF83600206A
:109E680082B00190034A019B52F82330184602B091
:109E7800704700BFF836002000B589B00390029102
:109E880013468DF80730FF238DF81F309DF80730F3
:109E9800002B01D0002300E0082305939DF807302C
:109EA800002B01D0082300E00C230493059B0693A4
:109EB80014E00F4A069B52F82330B3F1FF3F0AD152
:109EC8009DF80730029A06990398FFF747FF069B0B
:109ED8008DF81F3006E0069B01330693069A049B13
:109EE8009A42E6D39DF91F30184609B05DF804FB85
:109EF800F836002082B003468DF807309DF8073009
:109F0800094A4FF0FF3142F823109DF80730072B1C
:109F180007D99DF80730083B034A1344FF2283F80A
:109F2800502000BF02B07047F836002000B583B05B
:109F3800254B93F85830002B03D008230193019B3D
:109F48003EE000238DF8033009E09DF80330184601
:109F5800FFF73AFF9DF8033001338DF803309DF881
:109F680003301F2BF1D900238DF8033009E09DF849
:109F780003301846FFF7BEFF9DF8033001338DF814
:109F880003309DF803300B2BF1D9042200210F4830
:109F980008F06EF806210620FFF7D6FB0620FFF72B
:109FA800FFFB4FF4BE70FFF730FC4FF00040FFF7A7
:109FB80055FC054B012283F8582000230193019B8F
:109FC800184603B05DF804FBF83600204C37002033
:109FD800044B93F85830002B14BF01230023DBB245
:109FE80018467047F836002000B585B001900091FA
:109FF800019B1F2B04D92E4940F22D10FCF70AFBB8
:10A008002C4B93F85830012B04D029494FF4977002
:10A01800FCF700FB009B002B04D1254940F22F10D0
:10A02800FCF7F8FA002303930198FFF765FE03464F
:10A03800002B02D00823039334E0009B9B78002B6D
:10A0480019D0012200210198FFF716FF03468DF869
:10A058000B309DF90B30B3F1FF3F09D09DF90B0090
:10A06800009B1A78009B5B780199FFF75FFC05E07D
:10A078000423039302E00198FFF798FE039B002B4B
:10A0880010D1009B5B78012B03D10198FFF74CFDA1
:10A0980002E00198FFF75CFD0198FFF7F6FC0198D4
:10A0A800FFF7A0FE039B184605B05DF804FB00BF50
:10A0B80084270300F836002000B583B00190019B87
:10A0C8001F2B04D91B4940F26510FCF7A3FA01982D
:10A0D800FFF712FE0346002B04D116494FF4B37064
:10A0E800FCF798FA0198FFF71BFE0346002B0ED0E9
:10A0F8000198FFF7A7FE0346DBB21846FFF7FAFE02
:10A108000198FFF79FFE03461846FFF76BFC01987E
:10A11800FFF75AFE0198FFF781FE0346002B05D092
:10A128000198FFF7C3FC0198FFF76AFE00BF03B070
:10A138005DF804FB8427030000B583B00190019B00
:10A148001F2B04D9134940F29710FCF763FA0198C2
:10A15800FFF7D2FD0346002B04D10E494FF4CC7013
:10A16800FCF758FA0198FFF7DBFD0346002B04D1F2
:10A17800084940F29910FCF74DFA074A019B13442D
:10A18800303393F900301846FFF7A2FB00BF03B045
:10A198005DF804FB84270300F836002000B583B07F
:10A1A8000190019B1F2B04D9134940F2A110FCF721
:10A1B80031FA0198FFF7A0FD0346002B04D10E49A0
:10A1C8004FF4D170FCF726FA0198FFF7A9FD034672
:10A1D800002B04D1084940F2A310FCF71BFA074AE8
:10A1E800019B1344303393F900301846FFF788FB7E
:10A1F80000BF03B05DF804FB84270300F836002095
:10A2080000B585B00190019B1F2B04D911494FF46B
:10A21800DB70FCF7FFF90198FFF782FD0346002B7E
:10A2280004D10C4940F2B710FCF7F4F90198FFF794
:10A2380009FE0346DBB20C33DBB29B008DF80F300E
:10A248009DF80F301846FFF7BEFA0346184605B0CA
:10A258005DF804FB8427030000B585B00190019BDD
:10A268001F2B04D9114940F2C310FCF7D3F9019808
:10A27800FFF756FD0346002B04D10C494FF4E2705A
:10A28800FCF7C8F90198FFF7DDFD0346DBB2183388
:10A29800DBB29B008DF80F309DF80F301846FFF7A2
:10A2A80092FA0346184605B05DF804FB84270300BC
:10A2B80000B585B001900B468DF80330019B1F2B2C
:10A2C80004D91A4940F2CF10FCF7A4F90198FFF716
:10A2D80013FD0346002B04D114494FF4E870FCF732
:10A2E80099F90198FFF71CFD0346002B04D10F498B
:10A2F80040F2D110FCF78EF99DF80330002B14BF03
:10A3080001230023DBB28DF80F30094A019B134467
:10A31800303393F900301A469DF80F30194610462D
:10A32800FFF742FB00BF05B05DF804FB842703007C
:10A33800F836002000B595B000231093002303934E
:10A348004FF48073ADF83A300123129300230F9332
:10A3580021E0BDF83A301846FFF742FA0346002BD1
:10A368000ED01298FFF786FA0346002B08D0BDF8E6
:10A378003A301846FFF749FA109A129B1343109384
:10A38800129B5B001293BDF83A300433ADF83A30B3
:10A398000F9B01330F930F9B072BDAD94FF4BE7035
:10A3A800FFF71EFA0346002B0DD04FF4BE70FFF7DF
:10A3B8002CFA109B43F00043109303AB1A4601217B
:10A3C8000020FFF70BFC109BDBB2002B29D00123E8
:10A3D800129300230F9321E0129A109B1340002B35
:10A3E80016D00F98FFF752FA0D900F98FFF75EFA04
:10A3F80003468DF833300F98FFF732FD0B900B9B17
:10A40800002B05D09DF833200B9B11460D989847DB
:10A41800129B5B0012930F9B01330F930F9B072B2B
:10A42800DAD9109B002B80F2EE8000238DF84F3094
:10A4380000230293002311930AE0119B9B005033E1
:10A448006B444FF0FF3243F84C2C119B01331193AE
:10A45800119B002BF1D000238DF84F3000230F9370
:10A4680078E06B4A0F9B1344503393F900308DF812
:10A478002B309DF82B3023F0C0030993644A0F9BBF
:10A488001344503393F90030B3F1FF3F5FD001AB71
:10A4980019460998FFF7D6FB0346002B57D09DF8BD
:10A4A8002B309B098DF823300998FFF7CBFC034626
:10A4B8001846FFF7D5FC0790079B002B03D19DF8A2
:10A4C8002330032B43D19DF82330032B04D102AB57
:10A4D80019460998FFF7CEFB0998FFF74DFB03468D
:10A4E8008DF81B3003AB19460998FFF7ABFB0590B5
:10A4F800059B002B03D09DF81B30022B06D0059B33
:10A50800002B24D19DF81B30032B20D19DF823303C
:10A51800032B13D19DF81B30022B01D1032300E03C
:10A5280002238DF813309DF8133019460998FFF768
:10A53800CEFA9DF84F3001338DF84F30079B002B32
:10A5480005D09DF82320079B1146099898470F9B33
:10A5580001330F930F9B032B83D99DF84F30002BAA
:10A568004CD001238DF84E306B461A46012100204D
:10A57800FFF734FB0023119314E0119B9B00503329
:10A588006B4453F8502C119B9B0050336B4453F889
:10A59800443C9A4203D000238DF84E3005E0119BCD
:10A5A80001331193119B002BE7D09DF84E30002BFF
:10A5B80003D000238DF84F3020E0002311931AE0D8
:10A5C800119B9B0050336B4453F8502C119B9B00FC
:10A5D80050336B4443F8442C119B9B0050336B441D
:10A5E80053F8482C119B9B0050336B4443F84C2C78
:10A5F800119B01331193119B002BE1D09DF84F3033
:10A60800002B7FF428AF00BF15B05DF804FB00BF36
:10A61800F836002082B003468DF807309DF80730E1
:10A62800044A012101FA03F3C2F8043500BF02B05D
:10A63800704700BF00F0014082B003468DF8073034
:10A648009DF80730044A012101FA03F3C2F80835DE
:10A6580000BF02B0704700BF00F0014084B003465D
:10A66800029101928DF80F3008499DF80F30A233FE
:10A67800029A41F83320054A9DF80F30A233DB00D7
:10A688001344019A5A6000BF04B0704700F00140BB
:10A6980082B003468DF807309DF80730012202FA90
:10A6A80003F3184602B0704700B583B003468DF82F
:10A6B80007309DF807301846FFF7EAFF0346C3F353
:10A6C8001003002B14BF01230023DBB2184603B08C
:10A6D8005DF804FB82B00190019BB3F5003F34BFE5
:10A6E80001230023DBB2184602B0704700B583B0DF
:10A6F80003468DF807309DF807301846FFF7C8FF66
:10A7080003461846FFF7E6FF0346184603B05DF810
:10A7180004FB000000B583B003468DF807309DF8B0
:10A7280007301846FFF7B4FF0246064B1B68134074
:10A73800002B14BF01230023DBB2184603B05DF8D9
:10A7480004FB00BF5437002000B583B003468DF8E2
:10A7580007309DF807301846FFF79AFF0246044B6A
:10A768001B681343024A136000BF03B05DF804FB83
:10A778005437002000B583B003468DF807309DF8A4
:10A7880007301846FFF784FF0346DA43044B1B687B
:10A798001340034A136000BF03B05DF804FB00BF19
:10A7A8005437002000B587B001900023049300239C
:10A7B800059304230493274B059300238DF80F304A
:10A7C8003EE000238DF80E300DF10E03184604F01C
:10A7D800E9FA9DF80F301846FFF75AFF0246059B25
:10A7E8001340002B15D09DF80F301846FFF792FF45
:10A7F800034683F00103DBB2002B0AD09DF80F302B
:10A808001846FFF7A1FF019B9DF80F201A7000233F
:10A8180004939DF80E30184604F0DAFA049B002BD6
:10A8280012D09DF80F301846FFF732FF0346DB437E
:10A83800059A134005939DF80F3001338DF80F30BA
:10A84800059B002BBDD100E000BF049B184607B054
:10A858005DF804FBFFFF010000B585B003468DF8E5
:10A868000730002303939DF807301846FFF71CFFB5
:10A87800034683F00103DBB2002B02D007230393C6
:10A8880016E09DF807301846FFF7D6FE00238DF82E
:10A898000B300DF10B03184604F084FA9DF80730CD
:10A8A8001846FFF767FF9DF80B30184604F090FA3A
:10A8B800039B184605B05DF804FB00B587B0034656
:10A8C800029101928DF80F30029B002B02D0019B60
:10A8D800002B01D10E2325E0002305939DF80F30AE
:10A8E8001846FFF7E1FE034683F00103DBB2002BB5
:10A8F80002D00723059314E09DF80F301846FFF7A0
:10A9080009FF034683F00103DBB2002B02D00823C2
:10A91800059306E09DF80F30019A02991846FFF753
:10A928009DFE059B184607B05DF804FB00B585B091
:10A9380003468DF80730002303939DF80730184627
:10A94800FFF7D4FE034683F00103DBB2002B02D0ED
:10A95800072303931AE09DF807301846FFF7A4FE73
:10A968000346002B0DD09DF807301846FFF7D2FE9E
:10A97800034683F00103DBB2002B02D008230393C4
:10A9880004E09DF807301846FFF744FE039B18467D
:10A9980005B05DF804FB00B585B003468DF80730B7
:10A9A800002303939DF807301846FFF79FFE0346E0
:10A9B80083F00103DBB2002B02D0072303931CE0D2
:10A9C8009DF807301846FFF76FFE0346002B0DD0A1
:10A9D8009DF807301846FFF79DFE034683F00103F4
:10A9E800DBB2002B02D00823039306E09DF8073062
:10A9F8001846FFF721FE00230393039B184605B072
:10AA08005DF804FB08B5064B1B68002B03D105490C
:10AA18005120FBF7FFFD024B1B68984708BD00BF9C
:10AA2800583700202828030082B00190019B044A6F
:10AA3800934201D1034B00E00023184602B070474F
:10AA4800002000405837002000B587B001900091E1
:10AA5800019B002B03D11C497720FBF7DBFD0198F4
:10AA6800FFF7E2FF0590059B002B25D000238DF80A
:10AA7800133000238DF80B300DF10B03184604F04A
:10AA880091F9059B1B79002B03D001238DF8133016
:10AA980005E0059B009A1A60059B01221A719DF832
:10AAA8000B30184604F094F99DF81330002B03D0AE
:10AAB80011230393039B02E000230393039B18468F
:10AAC80007B05DF804FB00BF2828030082B00346E6
:10AAD8008DF807309DF8073003F01F0205499DF9EE
:10AAE80007305B09012000FA02F241F8232000BF79
:10AAF80002B0704700E100E082B003468DF80730ED
:10AB08009DF8073003F01F0206499DF907305B09DD
:10AB1800012000FA02F2203341F8232000BF02B0DE
:10AB2800704700BF00E100E082B003468DF80730AF
:10AB38009DF8073003F01F0206499DF907305B09AD
:10AB4800012000FA02F2603341F8232000BF02B06E
:10AB5800704700BF00E100E082B0034600918DF825
:10AB680007309DF90730002B0CDA009BDAB20C494C
:10AB78009DF8073003F00F03043B5201D2B20B4497
:10AB88001A7609E0009BDAB206499DF907305201AE
:10AB9800D2B20B4483F8002300BF02B0704700BF55
:10ABA80000ED00E000E100E082B00190019B1B0B8A
:10ABB8005BB2184602B0704700B583B003460A4638
:10ABC8008DF8073013468DF806309DF80630012BB6
:10ABD80003D99DF80630032B0BD99DF80630042BBA
:10ABE80003D99DF80630072B03D908496B20FBF7DA
:10ABF80011FD9DF806209DF9073011461846FFF70C
:10AC0800ABFF00BF03B05DF804FB00BFC42803001E
:10AC180000B583B003468DF807309DF90730184614
:10AC2800FFF782FF9DF907301846FFF74FFF00BF77
:10AC380003B05DF804FB00B583B003468DF8073018
:10AC48009DF907301846FFF757FF00BF03B05DF8BE
:10AC580004FB82B001900B468DF803309DF8033059
:10AC6800019A134401221A6000BF02B0704784B0F1
:10AC780001900B46ADF80230BDF80230019A13443A
:10AC880000221A60BDF80230019A13441B6803932E
:10AC9800039B00BF04B0704782B001900B46ADF82B
:10ACA8000230BDF80230019A13441B68002B14BF10
:10ACB80001230023DBB2184602B0704782B001902E
:10ACC8000091019BD3F80022009B1A43019BC3F813
:10ACD800002200BF02B0704782B001900091019B32
:10ACE800D3F80022009BDB431A40019BC3F80022E3
:10ACF80000BF02B0704782B001900091019B009A9A
:10AD0800C3F8042300BF02B0704782B001900091DD
:10AD1800019B009AC3F8082300BF02B0704782B0B5
:10AD280001900091019BD3F80423009B1340002B52
:10AD380014BF01230023DBB2184602B0704782B06B
:10AD480001900B468DF80330019BD3F8043523F0AE
:10AD580003029DF8033003F003031A43019BC3F871
:10AD6800042500BF02B0704782B001900B468DF8F1
:10AD78000330019BD3F8083523F003029DF8033014
:10AD880003F003031A43019BC3F8082500BF02B070
:10AD9800704782B001900B468DF80330019BD3F8C1
:10ADA800103523F00F029DF8033003F00F031A4308
:10ADB800019BC3F8102500BF02B0704784B0039010
:10ADC8000B4601928DF80B309DF80B20039B02F582
:10ADD800A872019943F8221000BF04B0704782B0EE
:10ADE8000190019B9BB250339BB29B009BB21846CB
:10ADF80002B0704782B001904FF48032019B02FA92
:10AE080003F3184602B0704710B588B0039002915A
:10AE18000192039B1B791A4613465B0013449B005F
:10AE2800734A13440793039B1B68724A934203D1E6
:10AE380071494820FBF7EEFB029B002B03D16E49BA
:10AE48004A20FBF7E7FB019B002B03D16A494B2003
:10AE5800FBF7E0FB079B1B7A002B03D00823059325
:10AE6800059BC2E0039B1B68624A93420FD1029B79
:10AE78009B78012B63D0029B9B78002B5FD0029BB1
:10AE88009B78022B5BD0029B9B78032B57D0039BAC
:10AE98001B685A4A93420FD1029B9B78012B4ED0D4
:10AEA800029B9B78002B4AD0029B9B78022B46D0B2
:10AEB800029B9B78032B42D0039B1B68504A93420A
:10AEC8000FD1029B9B78012B39D0029B9B78002BDA
:10AED80035D0029B9B78022B31D0029B9B78032BA9
:10AEE8002DD0039B1B68474A93420FD1029B9B7846
:10AEF800012B24D0029B9B78002B20D0029B9B78AF
:10AF0800022B1CD0029B9B78032B18D0039B1B6839
:10AF18003D4A93420FD1029B9B78012B0FD0029B95
:10AF28009B78002B0BD0029B9B78022B07D0029BAF
:10AF38009B78032B03D030495F20FBF76BFB079B03
:10AF4800019A1A60029B5A68079B5A6000238DF881
:10AF58001B3010E0039B1C689DF81B301846FFF758
:10AF68003EFF034619462046FFF781FE9DF81B3039
:10AF780001338DF81B30039B5B799DF81B209A42A7
:10AF8800E8D3039B1B681846FFF70EFE03461A46D4
:10AF9800029BDB7819461046FFF70EFE039B1B68E1
:10AFA8001846FFF701FE03461846FFF731FE039BDC
:10AFB8001A68029B5B7819461046FFF7C0FE039B90
:10AFC8001A68029B9B7819461046FFF7CDFE039B33
:10AFD8001A68029B1B7819461046FFF7DAFE079B92
:10AFE80001221A7200230593059B184608B010BD6C
:10AFF8006037002000800040FC28030000900040DB
:10B0080000A0004000A0014000B0014000B583B09E
:10B018000190019B1B681846FFF7C6FD03461846BA
:10B02800FFF709FE019B1B684FF0FF311846FFF739
:10B0380053FE019B1B684FF0FF311846FFF765FE72
:10B04800019800F041F8019B1B791946064A0B4606
:10B058005B000B449B001344083300221A7000BFA6
:10B0680003B05DF804FB00BF6037002000B583B073
:10B078000190019B1B791946114A0B465B000B4452
:10B088009B00134408331B78012B03D00D498F20F4
:10B09800FBF7C0FA019B1B6800211846FFF7D9FD92
:10B0A800019B1B791946064A0B465B000B449B0023
:10B0B8001344083302221A7000BF03B05DF804FB82
:10B0C80060370020FC28030000B583B00190019B85
:10B0D8001B791946114A0B465B000B449B0013442D
:10B0E80008331B78002B03D10D499720FBF792FA00
:10B0F800019B1B6810211846FFF7ABFD019B1B79CC
:10B108001946064A0B465B000B449B001344083360
:10B1180001221A7000BF03B05DF804FB60370020FD
:10B12800FC28030000B583B00190019B1B791946E8
:10B138000B4A0B465B000B449B00134408331B78F7
:10B14800002B03D10749B320FBF764FA019B1B6866
:10B158000C211846FFF77DFD00BF03B05DF804FB26
:10B1680060370020FC28030010B586B003900192D8
:10B178001A460B468DF80B3013468DF80A309DF8A9
:10B188000B301846FFF736FE05909DF80A30002B65
:10B1980012D0039B1C689DF80B301846FFF71FFE62
:10B1A800034619462046FFF762FD039B1B68059975
:10B1B8001846FFF7A0FD05E0039B1B680599184694
:10B1C800FFF7A3FD039B1B689DF80B10019A184617
:10B1D800FFF7F4FD00BF06B010BD00B585B00390C1
:10B1E80001921A460B468DF80B301346ADF808301D
:10B1F800039B18689DF80B304FF480729A409DF8B5
:10B208000B30012101FA03F313431946FFF764FDDC
:10B21800039B1B68BDF8082011461846FFF74EFD32
:10B228009DF818309DF80B10019A0398FFF79CFFC2
:10B2380000BF05B05DF804FB10B582B00190009125
:10B24800019B1B791946174A0B465B000B449B0070
:10B25800134408331B78002B03D11349FB20FBF759
:10B26800D9F9019B5B791A46009B934203D30E4997
:10B27800FC20FBF7CFF9019B1C680098FFF7AFFD96
:10B28800034619462046FFF7F2FC019B1C6800980C
:10B29800FFF7B0FD034619462046FFF72CFD00BF17
:10B2A80002B010BD60370020FC28030010B582B042
:10B2B80001900091019B1B791946134A0B465B00CC
:10B2C8000B449B00134408331B78002B04D10F490F
:10B2D80040F20710FBF79EF9019B5B791A46009B29
:10B2E800934204D309494FF48470FBF793F9019B07
:10B2F8001C680098FFF77EFD034619462046FFF7B5
:10B3080004FD00BF02B010BD60370020FC28030018
:10B3180000B587B00390029113468DF807300023DB
:10B328008DF8173030E09DF817301846FFF757FDB5
:10B338000346ADF814309DF817301846FFF75AFD4C
:10B348000490BDF8143019460398FFF7A5FC03468E
:10B35800002B14D004990398FFF7E1FC0346002B57
:10B368000DD0BDF8143019460398FFF780FC029BF6
:10B378001B68029A5168BDF81420104698479DF83A
:10B38800173001338DF817309DF817209DF80730D6
:10B398009A42C8D300BF00BF07B05DF804FB0000A5
:10B3A80008B5042202490348FFF7B2FF00BF08BDF1
:10B3B800603700200080004008B504220249034895
:10B3C800FFF7A6FF00BF08BD6C37002000900040C3
:10B3D80082B003468DF807309DF8073003F01F024E
:10B3E80005499DF907305B09012000FA02F241F88E
:10B3F800232000BF02B0704700E100E082B003469E
:10B408008DF807309DF8073003F01F0206499DF9B3
:10B4180007305B09012000FA02F2603341F823206B
:10B4280000BF02B0704700BF00E100E082B00346F1
:10B4380000918DF807309DF90730002B0CDA009B3E
:10B44800DAB20C499DF8073003F00F03043B5201B0
:10B45800D2B20B441A7609E0009BDAB206499DF98C
:10B4680007305201D2B20B4483F8002300BF02B068
:10B47800704700BF00ED00E000E100E082B00190FD
:10B48800019B1B0B5BB2184602B0704700B583B036
:10B4980003460A468DF8073013468DF806309DF8A6
:10B4A8000630012B03D99DF80630032B0BD99DF8E4
:10B4B8000630042B03D99DF80630072B03D9084919
:10B4C8006B20FBF7A7F89DF806209DF90730114679
:10B4D8001846FFF7ABFF00BF03B05DF804FB00BFE1
:10B4E8007C29030000B583B003468DF807309DF929
:10B4F80007301846FFF782FF9DF907301846FFF717
:10B5080067FF00BF03B05DF804FB84B001900B46F1
:10B51800ADF80230BDF80230019A134400221A60D7
:10B52800BDF80230019A13441B680393039B00BFC4
:10B5380004B0704782B001900B46ADF80230BDF8F8
:10B548000230019A13441B68002B14BF0123002307
:10B55800DBB2184602B0704782B001900091019B9F
:10B56800009AC3F8042300BF02B0704782B001906C
:10B578000091019BD3F80423009B1340002B14BFB8
:10B5880001230023DBB2184602B0704782B0019055
:10B598000091019B009AC3F8082300BF02B07047CE
:10B5A80084B00190019BD3F880340393019B039AE4
:10B5B800C3F88024039B184604B0704782B00190FA
:10B5C800019B0422C3F8002500BF02B0704784B075
:10B5D800039002910192039B019AC3F81425039BDF
:10B5E800029AC3F80C2500BF04B0704784B00390DA
:10B5F80002910192039B029AC3F80825039B019AC2
:10B60800C3F8102500BF04B0704782B00190019BB9
:10B61800D3F81835DBB2184602B0704782B00190F3
:10B628000B468DF803309DF80320019BC3F81C25B9
:10B6380000BF02B0704782B001900B468DF803300E
:10B648009DF80330019A134401221A6000BF02B02A
:10B65800704782B001900B468DF8033013468DF881
:10B6680002309DF803209DF802301343DBB21A46DE
:10B67800019BC3F86C2500BF02B0704782B00190EF
:10B688000091019B009AC3F8242500BF02B07047BF
:10B6980000B583B00190019B1B681F2B04D9054995
:10B6A8004FF4E870FAF7B6FF4FF0A043184603B01E
:10B6B8005DF804FBAC29030000B585B0019008468D
:10B6C80011461A4603468DF803300B468DF80230B2
:10B6D80013468DF8013001AB1846FFF7D9FF0390E8
:10B6E8009DF803209DF802305B001A439DF8013055
:10B6F8009B001A439DF818301B0242EA03019DF88B
:10B708001C301B04019A1943039B02F5E07243F8AD
:10B71800221000BF05B05DF804FB00B585B00390AA
:10B7280000230193002300930023012201210398A1
:10B73800FFF7C2FF00BF05B05DF804FB00B585B098
:10B7480003900B468DF80B309DF80B3000220192C8
:10B7580000220092002200210398FFF7ADFF00BFEE
:10B7680005B05DF804FB00B585B0019001AB184643
:10B77800FFF78EFF0390019B012202FA03F319469B
:10B78800039800F004F800BF05B05DF804FB82B030
:10B7980001900091019B009AC3F8082500BF02B0F0
:10B7A800704700B583B001900091009B1B68B3F10E
:10B7B800FF3F09D0009B1B681846FFF7D4FF009B8A
:10B7C8001B681846FFF7A9FF009B5B68B3F1FF3FB2
:10B7D80005D0009B5B6800211846FFF7AFFF019B6F
:10B7E8001A68009B9B6919461046FFF747FF019BA3
:10B7F8001868009B597D009B1B7D1A46FFF729FF9F
:10B80800019B1868009B1968009B5B681A46FFF744
:10B81800DEFE009B1B7D012B22D1009B9B68B3F1B0
:10B82800FF3F05D0009B9B6800211846FFF786FF65
:10B83800009BDB68B3F1FF3F09D0009BDB6818462B
:10B84800FFF791FF009BDB681846FFF766FF019B37
:10B858001868009BD968009B9B681A46FFF7C6FECC
:10B8680000BF03B05DF804FB00B583B001900B4640
:10B878008DF80330019B1B684FF48E711846FFF753
:10B8880044FE019B1B684FF4A2711846FFF73DFE6A
:10B89800019B1B680E491846FFF75EFE019B1B685B
:10B8A8001846FFF7EBFD03461A469DF80330194684
:10B8B8001046FFF7EBFD019B1B681846FFF7DEFDFE
:10B8C80003461846FFF70EFE00BF03B05DF804FB01
:10B8D8008000020000B587B0039002910192029B9C
:10B8E800002B03D12D49AA20FAF794FE039B1B795C
:10B8F8001A462C2302FB03F3294A1344049300231A
:10B908000593049B93F82A30002B03D00823059352
:10B91800059B3EE0039B1A68039B1B791946214B44
:10B9280053F8213019461046FFF78EF80346002BCE
:10B9380003D011230593059B2BE002990398FFF789
:10B9480030FF049B019A5A60029B1A69049B1A6093
:10B95800049B5B68002B05D0029B1B7F194603984C
:10B96800FFF782FF039B1B681846FFF727FE049B1F
:10B9780000229A61049B0022DA61049B002283F86A
:10B988002920049B00225A61049B012283F82A2063
:10B99800059B184607B05DF804FB00BFE4290300C7
:10B9A80078370020802A030000B585B00190009107
:10B9B8004FF48E710198FFF7A8FD009B9A68009BD1
:10B9C8001B6A13441B788DF80F30009B1B6A5A1CA6
:10B9D800009B1A629DF80F3019460198FFF71EFE6A
:10B9E80000BF05B05DF804FB00B583B0019000917D
:10B9F80016E0009B93F82830DBB2002B01D000231F
:10BA080015E04FF48E710198FFF794FD034683F01B
:10BA18000103DBB2002BECD100990198FFF7C4FFBA
:10BA2800009B1A6A009B5B699A42EAD30123184675
:10BA380003B05DF804FB000000B587B003900291E5
:10BA48000192039B1B791A462C2302FB03F33C4A01
:10BA580013440493049B93F82A30012B04D03949EA
:10BA680040F21510FAF7D6FD029B002B04D1354998
:10BA78004FF48B70FAF7CEFD019B002B04D13149AE
:10BA880040F21710FAF7C6FD039800F05DF8034678
:10BA9800002B03D011230593059B4CE0049B019ACE
:10BAA8005A61049B029A9A60049B00221A62049BC2
:10BAB800002283F8282000230593039B1B684FF47A
:10BAC8008E711846FFF721FD039B1B680821184655
